{
  "contractName": "Transactions",
  "abi": [
    {
      "anonymous": false,
      "inputs": [
        {
          "indexed": true,
          "internalType": "address",
          "name": "from",
          "type": "address"
        },
        {
          "indexed": true,
          "internalType": "address",
          "name": "to",
          "type": "address"
        },
        {
          "indexed": false,
          "internalType": "uint256",
          "name": "amount",
          "type": "uint256"
        },
        {
          "indexed": false,
          "internalType": "string",
          "name": "message",
          "type": "string"
        },
        {
          "indexed": false,
          "internalType": "uint256",
          "name": "timestamp",
          "type": "uint256"
        },
        {
          "indexed": false,
          "internalType": "string",
          "name": "keyword",
          "type": "string"
        }
      ],
      "name": "Transfer",
      "type": "event"
    },
    {
      "inputs": [],
      "name": "transactionCount",
      "outputs": [
        {
          "internalType": "uint256",
          "name": "",
          "type": "uint256"
        }
      ],
      "stateMutability": "view",
      "type": "function"
    },
    {
      "stateMutability": "payable",
      "type": "receive"
    },
    {
      "inputs": [
        {
          "internalType": "address payable",
          "name": "receiver",
          "type": "address"
        },
        {
          "internalType": "uint256",
          "name": "amount",
          "type": "uint256"
        },
        {
          "internalType": "string",
          "name": "message",
          "type": "string"
        },
        {
          "internalType": "string",
          "name": "keyword",
          "type": "string"
        }
      ],
      "name": "addToBlockChain",
      "outputs": [],
      "stateMutability": "payable",
      "type": "function"
    },
    {
      "inputs": [],
      "name": "getAllTransactions",
      "outputs": [
        {
          "components": [
            {
              "internalType": "address",
              "name": "sender",
              "type": "address"
            },
            {
              "internalType": "address",
              "name": "receiver",
              "type": "address"
            },
            {
              "internalType": "uint256",
              "name": "amount",
              "type": "uint256"
            },
            {
              "internalType": "string",
              "name": "message",
              "type": "string"
            },
            {
              "internalType": "uint256",
              "name": "timestamp",
              "type": "uint256"
            },
            {
              "internalType": "string",
              "name": "keyword",
              "type": "string"
            }
          ],
          "internalType": "struct Transactions.TransferStruct[]",
          "name": "",
          "type": "tuple[]"
        }
      ],
      "stateMutability": "view",
      "type": "function"
    },
    {
      "inputs": [],
      "name": "getTransactionCount",
      "outputs": [
        {
          "internalType": "uint256",
          "name": "",
          "type": "uint256"
        }
      ],
      "stateMutability": "view",
      "type": "function"
    }
  ],
  "bytecode": "0x608060405234801561000f575f80fd5b50610f3d8061001d5f395ff3fe608060405260043610610042575f3560e01c806327506f531461004d5780632e7700f014610077578063b2da0960146100a1578063b77bf600146100bd57610049565b3661004957005b5f80fd5b348015610058575f80fd5b506100616100e7565b60405161006e91906107db565b60405180910390f35b348015610082575f80fd5b5061008b61031f565b604051610098919061080a565b60405180910390f35b6100bb60048036038101906100b691906109c5565b610328565b005b3480156100c8575f80fd5b506100d16105ac565b6040516100de919061080a565b60405180910390f35b60605f805480602002602001604051908101604052809291908181526020015f905b82821015610316578382905f5260205f2090600602016040518060c00160405290815f82015f9054906101000a900473ffffffffffffffffffffffffffffffffffffffff1673ffffffffffffffffffffffffffffffffffffffff1673ffffffffffffffffffffffffffffffffffffffff168152602001600182015f9054906101000a900473ffffffffffffffffffffffffffffffffffffffff1673ffffffffffffffffffffffffffffffffffffffff1673ffffffffffffffffffffffffffffffffffffffff168152602001600282015481526020016003820180546101ed90610a8e565b80601f016020809104026020016040519081016040528092919081815260200182805461021990610a8e565b80156102645780601f1061023b57610100808354040283529160200191610264565b820191905f5260205f20905b81548152906001019060200180831161024757829003601f168201915b505050505081526020016004820154815260200160058201805461028790610a8e565b80601f01602080910402602001604051908101604052809291908181526020018280546102b390610a8e565b80156102fe5780601f106102d5576101008083540402835291602001916102fe565b820191905f5260205f20905b8154815290600101906020018083116102e157829003601f168201915b50505050508152505081526020019060010190610109565b50505050905090565b5f600154905090565b5f831161036a576040517f08c379a000000000000000000000000000000000000000000000000000000000815260040161036190610b18565b60405180910390fd5b5f73ffffffffffffffffffffffffffffffffffffffff168473ffffffffffffffffffffffffffffffffffffffff16036103d8576040517f08c379a00000000000000000000000000000000000000000000000000000000081526004016103cf90610b80565b60405180910390fd5b5f6040518060c001604052803373ffffffffffffffffffffffffffffffffffffffff1681526020018673ffffffffffffffffffffffffffffffffffffffff16815260200185815260200184815260200142815260200183815250908060018154018082558091505060019003905f5260205f2090600602015f909190919091505f820151815f015f6101000a81548173ffffffffffffffffffffffffffffffffffffffff021916908373ffffffffffffffffffffffffffffffffffffffff1602179055506020820151816001015f6101000a81548173ffffffffffffffffffffffffffffffffffffffff021916908373ffffffffffffffffffffffffffffffffffffffff1602179055506040820151816002015560608201518160030190816105019190610d3b565b506080820151816004015560a08201518160050190816105219190610d3b565b50505060015f81548092919061053690610e37565b91905055508373ffffffffffffffffffffffffffffffffffffffff163373ffffffffffffffffffffffffffffffffffffffff167f416cfa4330a4565f45c2fd2dd4826a83a37443aba2ce6f79477c7355afac35fa8585428660405161059e9493929190610eb6565b60405180910390a350505050565b60015481565b5f81519050919050565b5f82825260208201905092915050565b5f819050602082019050919050565b5f73ffffffffffffffffffffffffffffffffffffffff82169050919050565b5f610604826105db565b9050919050565b610614816105fa565b82525050565b5f819050919050565b61062c8161061a565b82525050565b5f81519050919050565b5f82825260208201905092915050565b5f5b8381101561066957808201518184015260208101905061064e565b5f8484015250505050565b5f601f19601f8301169050919050565b5f61068e82610632565b610698818561063c565b93506106a881856020860161064c565b6106b181610674565b840191505092915050565b5f60c083015f8301516106d15f86018261060b565b5060208301516106e4602086018261060b565b5060408301516106f76040860182610623565b506060830151848203606086015261070f8282610684565b91505060808301516107246080860182610623565b5060a083015184820360a086015261073c8282610684565b9150508091505092915050565b5f61075483836106bc565b905092915050565b5f602082019050919050565b5f610772826105b2565b61077c81856105bc565b93508360208202850161078e856105cc565b805f5b858110156107c957848403895281516107aa8582610749565b94506107b58361075c565b925060208a01995050600181019050610791565b50829750879550505050505092915050565b5f6020820190508181035f8301526107f38184610768565b905092915050565b6108048161061a565b82525050565b5f60208201905061081d5f8301846107fb565b92915050565b5f604051905090565b5f80fd5b5f80fd5b5f61083e826105db565b9050919050565b61084e81610834565b8114610858575f80fd5b50565b5f8135905061086981610845565b92915050565b6108788161061a565b8114610882575f80fd5b50565b5f813590506108938161086f565b92915050565b5f80fd5b5f80fd5b7f4e487b71000000000000000000000000000000000000000000000000000000005f52604160045260245ffd5b6108d782610674565b810181811067ffffffffffffffff821117156108f6576108f56108a1565b5b80604052505050565b5f610908610823565b905061091482826108ce565b919050565b5f67ffffffffffffffff821115610933576109326108a1565b5b61093c82610674565b9050602081019050919050565b828183375f83830152505050565b5f61096961096484610919565b6108ff565b9050828152602081018484840111156109855761098461089d565b5b610990848285610949565b509392505050565b5f82601f8301126109ac576109ab610899565b5b81356109bc848260208601610957565b91505092915050565b5f805f80608085870312156109dd576109dc61082c565b5b5f6109ea8782880161085b565b94505060206109fb87828801610885565b935050604085013567ffffffffffffffff811115610a1c57610a1b610830565b5b610a2887828801610998565b925050606085013567ffffffffffffffff811115610a4957610a48610830565b5b610a5587828801610998565b91505092959194509250565b7f4e487b71000000000000000000000000000000000000000000000000000000005f52602260045260245ffd5b5f6002820490506001821680610aa557607f821691505b602082108103610ab857610ab7610a61565b5b50919050565b5f82825260208201905092915050565b7f416d6f756e74206d7573742062652067726561746572207468616e207a65726f5f82015250565b5f610b02602083610abe565b9150610b0d82610ace565b602082019050919050565b5f6020820190508181035f830152610b2f81610af6565b9050919050565b7f496e76616c6964207265636569766572206164647265737300000000000000005f82015250565b5f610b6a601883610abe565b9150610b7582610b36565b602082019050919050565b5f6020820190508181035f830152610b9781610b5e565b9050919050565b5f819050815f5260205f209050919050565b5f6020601f8301049050919050565b5f82821b905092915050565b5f60088302610bfa7fffffffffffffffffffffffffffffffffffffffffffffffffffffffffffffffff82610bbf565b610c048683610bbf565b95508019841693508086168417925050509392505050565b5f819050919050565b5f610c3f610c3a610c358461061a565b610c1c565b61061a565b9050919050565b5f819050919050565b610c5883610c25565b610c6c610c6482610c46565b848454610bcb565b825550505050565b5f90565b610c80610c74565b610c8b818484610c4f565b505050565b5b81811015610cae57610ca35f82610c78565b600181019050610c91565b5050565b601f821115610cf357610cc481610b9e565b610ccd84610bb0565b81016020851015610cdc578190505b610cf0610ce885610bb0565b830182610c90565b50505b505050565b5f82821c905092915050565b5f610d135f1984600802610cf8565b1980831691505092915050565b5f610d2b8383610d04565b9150826002028217905092915050565b610d4482610632565b67ffffffffffffffff811115610d5d57610d5c6108a1565b5b610d678254610a8e565b610d72828285610cb2565b5f60209050601f831160018114610da3575f8415610d91578287015190505b610d9b8582610d20565b865550610e02565b601f198416610db186610b9e565b5f5b82811015610dd857848901518255600182019150602085019450602081019050610db3565b86831015610df55784890151610df1601f891682610d04565b8355505b6001600288020188555050505b505050505050565b7f4e487b71000000000000000000000000000000000000000000000000000000005f52601160045260245ffd5b5f610e418261061a565b91507fffffffffffffffffffffffffffffffffffffffffffffffffffffffffffffffff8203610e7357610e72610e0a565b5b600182019050919050565b5f610e8882610632565b610e928185610abe565b9350610ea281856020860161064c565b610eab81610674565b840191505092915050565b5f608082019050610ec95f8301876107fb565b8181036020830152610edb8186610e7e565b9050610eea60408301856107fb565b8181036060830152610efc8184610e7e565b90509594505050505056fea2646970667358221220d94befe34cc61a730466172e94bf4a3bded46c3e9a88491467c406bf34b9caa364736f6c63430008150033",
  "immutableReferences": {},
  "source": "// SPDX-License-Identifier: MIT\r\npragma solidity ^0.8.0;\r\n\r\ncontract Transactions {\r\n    struct TransferStruct {\r\n        address sender;\r\n        address receiver;\r\n        uint amount;\r\n        string message;\r\n        uint256 timestamp;\r\n        string keyword;\r\n    }\r\n\r\n    TransferStruct[] private transactions;\r\n    uint256 public transactionCount;\r\n\r\n    event Transfer(\r\n        address indexed from,\r\n        address indexed to,\r\n        uint amount,\r\n        string message,\r\n        uint256 timestamp,\r\n        string keyword\r\n    );\r\n\r\n    function addToBlockChain(\r\n        address payable receiver,\r\n        uint amount,\r\n        string memory message,\r\n        string memory keyword\r\n    ) public payable {\r\n        require(amount > 0, \"Amount must be greater than zero\");\r\n        require(receiver != address(0), \"Invalid receiver address\");\r\n\r\n        transactions.push(\r\n            TransferStruct({\r\n                sender: msg.sender,\r\n                receiver: receiver,\r\n                amount: amount,\r\n                message: message,\r\n                timestamp: block.timestamp,\r\n                keyword: keyword\r\n            })\r\n        );\r\n\r\n        transactionCount++;\r\n        emit Transfer(msg.sender, receiver, amount, message, block.timestamp, keyword);\r\n    }\r\n\r\n    function getAllTransactions() public view returns (TransferStruct[] memory) {\r\n        return transactions;\r\n    }\r\n\r\n    function getTransactionCount() public view returns (uint256) {\r\n        return transactionCount;\r\n    }\r\n\r\n    receive() external payable {}\r\n}\r\n",
  "sourcePath": "C:\\Users\\ossama zine-eddine\\Downloads\\cypto-exchanger-master\\cypto-exchanger-master\\src\\app\\contracts\\contracts\\Transactions.sol",
  "compiler": {
    "name": "solc",
    "version": "0.8.21+commit.d9974bed.Emscripten.clang"
  },
  "schemaVersion": "3.4.16",
  "updatedAt": "2025-01-03T17:18:21.096Z",
  "devdoc": {
    "kind": "dev",
    "methods": {},
    "version": 1
  },
  "userdoc": {
    "kind": "user",
    "methods": {},
    "version": 1
  }
}